:1000000012C024C023C022C021C020C01FC01EC0F7
:100010001DC01CC01BC01AC019C018C017C016C014
:1000200015C014C013C011241FBECFE5D4E0DEBF3D
:10003000CDBF10E0A0E6B0E0E6EFF6E002C005902C
:100040000D92AE36B107D9F702D053C3D9CFCF93B3
:10005000DF93CDB7DEB7A0970FB6F894DEBF0FBE23
:10006000CDBF84E390E024E330E0F90120812160FA
:10007000FC01208385E390E022E0FC0120831ED177
:1000800080E090E0A8ECB2E48D839E83AF83B887D4
:1000900020E030E04AE753E46D817E818F819885CE
:1000A00094D2DC01CB0189879A87AB87BC8720E09B
:1000B00030E040E85FE369857A858B859C8504D2D2
:1000C00088232CF481E090E09E878D873BC020E060
:1000D0003FEF4FE757E469857A858B859C8571D220
:1000E00018163CF520E030E040E251E46D817E815D
:1000F0008F8198856AD2DC01CB01BC01CD01E8D1AA
:10010000DC01CB019E878D870FC089E190E0988B41
:100110008F878F8598890197F1F7988B8F878D85C9
:100120009E8501979E878D878D859E85009769F7AF
:1001300013C069857A858B859C85CAD1DC01CB018A
:100140009E878D878D859E859A8B898B89899A89D3
:100150000197F1F79A8B898B83E390E0FC01808112
:10016000882F90E08270992721E0009709F020E025
:10017000822F90E09C838B832B813C8189819A81A3
:100180002817390719F08B819C8171D08B819C8154
:100190009A83898380E090E0AAE7B5E48B8B9C8BFF
:1001A000AD8BBE8B20E030E04AE753E46B897C895D
:1001B0008D899E890AD2DC01CB018F8B988FA98F04
:1001C000BA8F20E030E040E85FE36F89788D898D59
:1001D0009A8D7AD188232CF481E090E09C8F8B8FCC
:1001E0003BC020E03FEF4FE757E46F89788D898D62
:1001F0009A8DE7D118163CF520E030E040E251E45A
:100200006B897C898D899E89E0D1DC01CB01BC01A1
:10021000CD015ED1DC01CB019C8F8B8F0FC089E1BA
:1002200090E09E8F8D8F8D8D9E8D0197F1F79E8F23
:100230008D8F8B8D9C8D01979C8F8B8F8B8D9C8D43
:10024000009769F789CF6F89788D898D9A8D40D114
:10025000DC01CB019C8F8B8F8B8D9C8D98A38F8F16
:100260008F8D98A10197F1F798A38F8F75CFCF93BA
:10027000DF9300D0CDB7DEB79A83898389819A81D5
:10028000009711F007D001C00FD00F900F90DF91B1
:10029000CF910895CF93DF93CDB7DEB780E690E09E
:1002A00027D0DF91CF910895CF93DF93CDB7DEB7FD
:1002B00086E690E01DD0DF91CF910895CF93DF9334
:1002C000CDB7DEB780E490E0FC01108289E290E0D7
:1002D00029E1FC0120838AE290E028E1FC012083EF
:1002E00080E490E02EE8FC012083DF91CF91089517
:1002F0000F931F93CF93DF93CDB7DEB762970FB6FF
:10030000F894DEBF0FBECDBF9A8B898B1A821982FB
:1003100084C089819A8129893A89820F931FFC01BF
:1003200080818FD085E390E025E330E0F9013081D2
:1003300021E02327FC01208380E090E0A0E8BFE3D8
:100340008B839C83AD83BE8320E030E04AE753E497
:100350006B817C818D819E8138D1DC01CB018F83C3
:100360009887A987BA8720E030E040E85FE36F8193
:10037000788589859A85A8D088232CF481E090E03F
:100380009C878B873BC020E03FEF4FE757E46F81AE
:10039000788589859A8515D118163CF520E030E0DE
:1003A00040E251E46B817C818D819E810ED1DC0124
:1003B000CB01BC01CD018CD0DC01CB019C878B87AC
:1003C0000FC089E190E09E878D878D859E8501977E
:1003D000F1F79E878D878B859C8501979C878B87FE
:1003E0008B859C85009769F713C06F817885898517
:1003F0009A856ED0DC01CB019C878B878B859C8591
:10040000988B8F878F8598890197F1F7988B8F87C5
:1004100089819A8101969A83898309811A818989C0
:100420009A895ED10817190708F473CF62960FB640
:10043000F894DEBF0FBECDBFDF91CF911F910F911A
:100440000895CF93DF931F92CDB7DEB78983000065
:100450008BE290E0FC018081882F90E080729927E8
:100460000097B1F38AE290E02AE230E0F9012081BE
:100470002E7FFC0120838981882F90E0882791704E
:10048000009749F08AE290E02AE230E0F901208109
:100490002160FC0120838CE290E02981FC01208313
:1004A0000F90DF91CF910895CF93DF93CDB7DEB753
:1004B00000008BE290E0FC0180818CE290E0FC0186
:1004C0008081DF91CF9108952FD008F481E00895C5
:1004D00057D088F09F5790F0B92F9927B751A0F0C7
:1004E000D1F0660F771F881F991F1AF0BA95C9F7C8
:1004F00012C0B13081F05ED0B1E008955BC0672FCB
:10050000782F8827B85F39F0B93FCCF38695779577
:100510006795B395D9F73EF4909580957095619560
:100520007F4F8F4F9F4F0895990F0008550FAA0BCB
:10053000E0E8FEEF16161706E807F907C0F01216F6
:100540001306E407F50798F0621B730B840B950BF9
:1005500039F40A2661F0232B242B252B21F408954E
:100560000A2609F4A140A6958FEF811D811D0895EB
:1005700057FD9058440F551F59F05F3F71F0479554
:10058000880F97FB991F61F09F3F79F08795089539
:10059000121613061406551FF2CF4695F1DF08C058
:1005A000161617061806991FF1CF86957105610575
:1005B00008940895E894BB2766277727CB0197F91D
:1005C0000895B2DF08F48FEF08950BD078C069D09A
:1005D00028F06ED018F0952309F05AC05FC011249E
:1005E000EACFC6DFA0F3959FD1F3950F50E0551FDA
:1005F000629FF001729FBB27F00DB11D639FAA2778
:10060000F00DB11DAA1F649F6627B00DA11D661FC6
:10061000829F2227B00DA11D621F739FB00DA11DE7
:10062000621F839FA00D611D221F749F3327A00DA1
:10063000611D231F849F600D211D822F762F6A2F3D
:1006400011249F5750408AF0E1F088234AF0EE0FC2
:10065000FF1FBB1F661F771F881F91505040A9F7CF
:100660009E3F510570F014C0A6CF5F3FECF3983E5B
:10067000DCF3869577956795B795F795E7959F5F36
:10068000C1F7FE2B880F911D9695879597F90895D0
:1006900097F99F6780E870E060E008959FEF80EC35
:1006A000089500240A9416161706180609060895D8
:1006B00000240A9412161306140605060895092E3E
:1006C0000394000C11F4882352F0BB0F40F4BF2BAD
:1006D00011F460FF04C06F5F7F4F8F4F9F4F0895ED
:1006E000FC0101900020E9F7809590958E0F9F1FE7
:0606F0000895F894FFCF0D
:0E06F6004C4F434B0A00554E4C4F434B0A00ED
:00000001FF
