:1000000012C024C023C022C021C020C01FC01EC0F7
:100010001DC01CC01BC01AC019C018C017C016C014
:1000200015C014C013C011241FBECFE5D4E0DEBF3D
:10003000CDBF10E0A0E6B0E0E2E9F9E002C0059033
:100040000D92AE3BB107D9F702D0A1C4D9CFCF935F
:10005000DF93CDB7DEB72E970FB6F894DEBF0FBE95
:10006000CDBF84E390E024E330E0F90120812160FA
:10007000FC012083A0D080E090E0A8ECB2E489836A
:100080009A83AB83BC8320E030E04AE753E4698184
:100090007A818B819C81DED3DC01CB018D839E83B1
:1000A000AF83B88720E030E040E85FE36D817E8178
:1000B0008F8198854ED388232CF481E090E09A8735
:1000C00089873BC020E03FEF4FE757E46D817E8199
:1000D0008F819885BBD318163CF520E030E040E2D4
:1000E00051E469817A818B819C81B4D3DC01CB019D
:1000F000BC01CD0132D3DC01CB019A8789870FC0C7
:1001000089E190E09C878B878B859C850197F1F72F
:100110009C878B8789859A8501979A8789878985A6
:100120009A85009769F713C06D817E818F819885CC
:1001300014D3DC01CB019A87898789859A859E87AC
:100140008D878D859E850197F1F79E878D8701D0DC
:10015000FECFCF93DF9300D0CDB7DEB72CD19A83FB
:10016000898389819A810AD4019729813A81820FF2
:10017000931FFC0110821A82198289819A8167E695
:1001800070E0F3D3009721F08FE690E037D00EC0F7
:1001900089819A8164E870E0E8D3009721F08DE8C6
:1001A00090E02CD003C081EA90E028D00F900F900F
:1001B000DF91CF910895CF93DF93CDB7DEB780E481
:1001C00090E0FC01108289E290E029E1FC012083AB
:1001D0008AE290E028E1FC0120838BE290E02BE2B0
:1001E00030E0F90120812D7FFC01208380E490E044
:1001F0002EE8FC012083DF91CF9108950F931F9388
:10020000CF93DF93CDB7DEB762970FB6F894DEBF1A
:100210000FBECDBF9A8B898B1A82198284C08981C7
:100220009A8129893A89820F931FFC0180818FD09E
:1002300085E390E025E330E0F901308121E02327D8
:10024000FC01208380E090E0A0E8BFE38B839C83E7
:10025000AD83BE8320E030E04AE753E46B817C81CC
:100260008D819E81F7D2DC01CB018F839887A9878E
:10027000BA8720E030E040E85FE36F8178858985C8
:100280009A8567D288232CF481E090E09C878B8745
:100290003BC020E03FEF4FE757E46F8178858985C9
:1002A0009A85D4D218163CF520E030E040E251E4C3
:1002B0006B817C818D819E81CDD2DC01CB01BC0123
:1002C000CD014BD2DC01CB019C878B870FC089E12C
:1002D00090E09E878D878D859E850197F1F79E879B
:1002E0008D878B859C8501979C878B878B859C85CB
:1002F000009769F713C06F81788589859A852DD21B
:10030000DC01CB019C878B878B859C85988B8F87A5
:100310008F8598890197F1F7988B8F8789819A81CA
:1003200001969A83898309811A8189899A8926D3BA
:100330000817190708F473CF62960FB6F894DEBF5A
:100340000FBECDBFDF91CF911F910F910895CF9335
:10035000DF931F92CDB7DEB7898300008BE290E078
:10036000FC018081882F90E0807299270097B1F37B
:100370008AE290E02AE230E0F90120812E7FFC0140
:1003800020838981992787FD909588279170009710
:1003900049F08AE290E02AE230E0F9012081216010
:1003A000FC0120838CE290E02981FC0120830F90E6
:1003B000DF91CF910895CF93DF9300D000D01F92AB
:1003C000CDB7DEB71A8219829ED18B8389819A813B
:1003D0002C813D81820F931F2B81FC0120838B8117
:1003E0008A3021F480E690E009DF06C089819A8195
:1003F00001969A838983E8CF89819A812C813D81F6
:10040000820F931FFC0110828C819D810F900F90B1
:100410000F900F900F90DF91CF910895CF93DF93BE
:10042000CDB7DEB7AA970FB6F894DEBF0FBECDBF2B
:1004300080E090E0AAEFB3E489839A83AB83BC8326
:1004400020E030E04AE753E469817A818B819C8126
:1004500001D2DC01CB018D839E83AF83B88720E07E
:1004600030E040E85FE36D817E818F81988571D1B6
:1004700088232CF481E090E09A8789873BC020E0B4
:100480003FEF4FE757E46D817E818F819885DED104
:1004900018163CF520E030E040E251E469817A81B1
:1004A0008B819C81D7D1DC01CB01BC01CD0155D121
:1004B000DC01CB019A8789870FC089E190E09C8796
:1004C0008B878B859C850197F1F79C878B87898526
:1004D0009A8501979A87898789859A85009769F710
:1004E00013C06D817E818F81988537D1DC01CB016E
:1004F0009A87898789859A859E878D878D859E8530
:100500000197F1F79E878D8785E390E025E330E042
:10051000F901308121E02327FC01208380E090E075
:10052000AAEFB3E48F87988BA98BBA8B20E030E0D9
:100530004AE753E46F85788989899A898BD1DC01F0
:10054000CB018B8B9C8BAD8BBE8B20E030E040E8E9
:100550005FE36B897C898D899E89FBD088232CF48D
:1005600081E090E0988F8F8B3BC020E03FEF4FE71A
:1005700057E46B897C898D899E8968D118163CF572
:1005800020E030E040E251E46F85788989899A89DA
:1005900061D1DC01CB01BC01CD01DFD0DC01CB019D
:1005A000988F8F8B0FC089E190E09A8F898F898D0A
:1005B0009A8D0197F1F79A8F898F8F89988D01977E
:1005C000988F8F8B8F89988D009769F713C06B89EF
:1005D0007C898D899E89C1D0DC01CB01988F8F8B5E
:1005E0008F89988D9C8F8B8F8B8D9C8D0197F1F7C8
:1005F0009C8F8B8F85E390E025E330E0F90130811B
:1006000021E02327FC01208380E090E0AAEFB3E4FF
:100610008D8F9E8FAF8FB8A320E030E04AE753E480
:100620006D8D7E8D8F8D98A115D1DC01CB0189A3B5
:100630009AA3ABA3BCA320E030E040E85FE369A14C
:100640007AA18BA19CA185D088232CF481E090E035
:100650009EA38DA33BC020E03FEF4FE757E469A185
:100660007AA18BA19CA1F2D018163CF520E030E0D5
:1006700040E251E46D8D7E8D8F8D98A1EBD0DC0131
:10068000CB01BC01CD0169D0DC01CB019EA38DA3C0
:100690000FC089E190E098A78FA38FA198A501973B
:1006A000F1F798A78FA38DA19EA101979EA38DA37B
:1006B0008DA19EA1009769F713C069A17AA18BA1B2
:1006C0009CA14BD0DC01CB019EA38DA38DA19EA14B
:1006D0009AA789A789A59AA50197F1F79AA789A74B
:1006E00085E390E025E330E0F901308121E0232724
:1006F000FC012083AA960FB6F894DEBF0FBECDBFD3
:10070000DF91CF910895CF93DF93CDB7DEB78BE222
:1007100090E0FC0180818823D4F78CE290E0FC011A
:100720008081DF91CF910895CF93DF931F92CDB752
:10073000DEB705C08CE290E0FC01808189838BE20A
:1007400090E0FC0180818823ACF30F90DF91CF9182
:1007500008952FD008F481E0089557D088F09F576E
:1007600090F0B92F9927B751A0F0D1F0660F771FFD
:10077000881F991F1AF0BA95C9F712C0B13081F0DD
:100780005ED0B1E008955BC0672F782F8827B85FEF
:1007900039F0B93FCCF3869577956795B395D9F73E
:1007A0003EF490958095709561957F4F8F4F9F4F48
:1007B0000895990F0008550FAA0BE0E8FEEF1616F2
:1007C0001706E807F907C0F012161306E407F50745
:1007D00098F0621B730B840B950B39F40A2661F0B9
:1007E000232B242B252B21F408950A2609F4A1405C
:1007F000A6958FEF811D811D089557FD9058440FD8
:10080000551F59F05F3F71F04795880F97FB991F6F
:1008100061F09F3F79F0879508951216130614062C
:10082000551FF2CF4695F1DF08C0161617061806B9
:10083000991FF1CF86957105610508940895E89494
:10084000BB2766277727CB0197F90895B2DF08F415
:100850008FEF08950BD078C069D028F06ED018F0D3
:10086000952309F05AC05FC01124EACFC6DFA0F378
:10087000959FD1F3950F50E0551F629FF001729F35
:10088000BB27F00DB11D639FAA27F00DB11DAA1F54
:10089000649F6627B00DA11D661F829F2227B00DA1
:1008A000A11D621F739FB00DA11D621F839FA00D2C
:1008B000611D221F749F3327A00D611D231F849F7C
:1008C000600D211D822F762F6A2F11249F575040D3
:1008D0008AF0E1F088234AF0EE0FFF1FBB1F661F6E
:1008E000771F881F91505040A9F79E3F510570F027
:1008F00014C0A6CF5F3FECF3983EDCF38695779566
:100900006795B795F795E7959F5FC1F7FE2B880F21
:10091000911D9695879597F9089597F99F6780E8B7
:1009200070E060E008959FEF80EC089500240A9441
:100930001616170618060906089500240A941216BA
:100940001306140605060895092E0394000C11F4ED
:10095000882352F0BB0F40F4BF2B11F460FF04C09A
:100960006F5F7F4F8F4F9F4F0895FB01DC018D918B
:10097000019080190110D9F3990B0895FC010190A1
:100980000020E9F7809590958E0F9F1F0895F894A9
:02099000FFCF97
:10099200425245414B2100616263646566670048CB
:1009A20045454559595959205544454E20425245CD
:1009B200414B2100616263646566670A00484545F0
:1009C2004559595959204D454420425245414B21E0
:1009D200004845454559595959204E4F47455420DD
:0E09E200414E4445542121212121213F210075
:00000001FF
