:1000000012C024C023C022C021C020C01FC01EC0F7
:100010001DC01CC01BC01AC019C018C017C016C014
:1000200015C014C013C011241FBECFE5D4E0DEBF3D
:10003000CDBF10E0A0E6B0E0E8E6FCE002C005902D
:100040000D92A439B107D9F702D00CC6D9CFCF93FE
:10005000DF93CDB7DEB72E970FB6F894DEBF0FBE95
:10006000CDBF84E390E024E330E0F90120812160FA
:10007000FC01208384E390E024E330E0F901208157
:100080002260FC01208372D480E090E0A8ECB2E40E
:1000900089839A83AB83BC8320E030E04AE753E452
:1000A00069817A818B819C8140D5DC01CB018D8374
:1000B0009E83AF83B88720E030E040E85FE36D8146
:1000C0007E818F819885B0D488232CF481E090E0E4
:1000D0009A8789873BC020E03FEF4FE757E46D8167
:1000E0007E818F8198851DD518163CF520E030E083
:1000F00040E251E469817A818B819C8116D5DC01D3
:10010000CB01BC01CD0194D4DC01CB019A87898756
:100110000FC089E190E09C878B878B859C85019738
:10012000F1F79C878B8789859A8501979A878987BC
:1001300089859A85009769F713C06D817E818F81CB
:10014000988576D4DC01CB019A87898789859A8541
:100150009E878D878D859E850197F1F79E878D8778
:1001600001D0FECFCF93DF9300D0CDB7DEB733D22F
:100170009A83898389819A8167E670E061D50097C7
:1001800029F418D08CE690E049D10FC089819A817A
:1001900063E770E055D5009729F4A6D08AE790E090
:1001A0003DD103C085E890E039D10F900F90DF91E9
:1001B000CF910895CF93DF93CDB7DEB72E970FB6CB
:1001C000F894DEBF0FBECDBF85E390E025E330E0BD
:1001D000F901308122E02327FC0120838AE490E0AA
:1001E0002EEB30E0FC013183208380E090E0AAE731
:1001F000B4E489839A83AB83BC8320E030E04AE790
:1002000053E469817A818B819C818FD4DC01CB019D
:100210008D839E83AF83B88720E030E040E85FE3C2
:100220006D817E818F819885FFD388232CF481E0B6
:1002300090E09A8789873BC020E03FEF4FE757E483
:100240006D817E818F8198856CD418163CF520E0F5
:1002500030E040E251E469817A818B819C8165D4F0
:10026000DC01CB01BC01CD01E3D3DC01CB019A87DA
:1002700089870FC089E190E09C878B878B859C855F
:100280000197F1F79C878B8789859A8501979A87D3
:10029000898789859A85009769F713C06D817E816A
:1002A0008F819885C5D3DC01CB019A8789878985A1
:1002B0009A859E878D878D859E850197F1F79E870C
:1002C0008D8785E390E025E330E0F901308122E07D
:1002D0002327FC0120832E960FB6F894DEBF0FBEB5
:1002E000CDBFDF91CF910895CF93DF93CDB7DEB728
:1002F0002E970FB6F894DEBF0FBECDBF85E390E01A
:1003000025E330E0F901308122E02327FC0120833E
:100310008AE490E02EEE32E0FC013183208380E01D
:1003200090E0AAE7B4E489839A83AB83BC8320E09E
:1003300030E04AE753E469817A818B819C81F5D36F
:10034000DC01CB018D839E83AF83B88720E030E052
:1003500040E85FE36D817E818F81988565D3882336
:100360002CF481E090E09A8789873BC020E03FEF42
:100370004FE757E46D817E818F819885D2D318161F
:100380003CF520E030E040E251E469817A818B81E4
:100390009C81CBD3DC01CB01BC01CD0149D3DC0175
:1003A000CB019A8789870FC089E190E09C878B8772
:1003B0008B859C850197F1F79C878B8789859A852A
:1003C00001979A87898789859A85009769F713C06D
:1003D0006D817E818F8198852BD3DC01CB019A873B
:1003E000898789859A859E878D878D859E850197CA
:1003F000F1F79E878D8785E390E025E330E0F901F2
:10040000308122E02327FC0120832E960FB6F8943A
:10041000DEBF0FBECDBFDF91CF9108950F931F9325
:10042000CF93DF93CDB7DEB762970FB6F894DEBFF8
:100430000FBECDBF9A8B898B1A82198284C08981A5
:100440009A8129893A89820F931FFC0180818FD07C
:1004500085E390E025E330E0F901308121E02327B6
:10046000FC01208380E090E0A0E8BFE38B839C83C5
:10047000AD83BE8320E030E04AE753E46B817C81AA
:100480008D819E8152D3DC01CB018F839887A98710
:10049000BA8720E030E040E85FE36F8178858985A6
:1004A0009A85C2D288232CF481E090E09C878B87C8
:1004B0003BC020E03FEF4FE757E46F8178858985A7
:1004C0009A852FD318163CF520E030E040E251E445
:1004D0006B817C818D819E8128D3DC01CB01BC01A5
:1004E000CD01A6D2DC01CB019C878B870FC089E1AF
:1004F00090E09E878D878D859E850197F1F79E8779
:100500008D878B859C8501979C878B878B859C85A8
:10051000009769F713C06F81788589859A8588D29D
:10052000DC01CB019C878B878B859C85988B8F8783
:100530008F8598890197F1F7988B8F8789819A81A8
:1005400001969A83898309811A8189899A8981D33D
:100550000817190708F473CF62960FB6F894DEBF38
:100560000FBECDBFDF91CF911F910F910895CF9313
:10057000DF931F92CDB7DEB7898300008BE290E056
:10058000FC018081882F90E0807299270097B1F359
:100590008AE290E02AE230E0F90120812E7FFC011E
:1005A00020838981992787FD9095882791700097EE
:1005B00049F08AE290E02AE230E0F90120812160EE
:1005C000FC0120838CE290E02981FC0120830F90C4
:1005D000DF91CF910895CF93DF9300D000D01F9289
:1005E000CDB7DEB71A8219829BD18B8389819A811C
:1005F0002C813D81820F931F2B81FC0120838B81F5
:100600008A3009F406C089819A8101969A83898388
:10061000EBCF89819A812C813D81820F931FFC0150
:1006200010828C819D810F900F900F900F900F90F2
:10063000DF91CF910895CF93DF93CDB7DEB7AA971F
:100640000FB6F894DEBF0FBECDBF80E090E0AAEFFA
:10065000B3E489839A83AB83BC8320E030E04AE72C
:1006600053E469817A818B819C815FD2DC01CB016B
:100670008D839E83AF83B88720E030E040E85FE35E
:100680006D817E818F819885CFD188232CF481E084
:1006900090E09A8789873BC020E03FEF4FE757E41F
:1006A0006D817E818F8198853CD218163CF520E0C3
:1006B00030E040E251E469817A818B819C8135D2BE
:1006C000DC01CB01BC01CD01B3D1DC01CB019A87A8
:1006D00089870FC089E190E09C878B878B859C85FB
:1006E0000197F1F79C878B8789859A8501979A876F
:1006F000898789859A85009769F713C06D817E8106
:100700008F81988595D1DC01CB019A87898789856E
:100710009A859E878D878D859E850197F1F79E87A7
:100720008D8785E390E025E330E0F901308121E019
:100730002327FC01208380E090E0AAEFB3E48F87B9
:10074000988BA98BBA8B20E030E04AE753E46F85A1
:10075000788989899A89E9D1DC01CB018B8B9C8BC3
:10076000AD8BBE8B20E030E040E85FE36B897C8995
:100770008D899E8959D188232CF481E090E0988F4F
:100780008F8B3BC020E03FEF4FE757E46B897C89BC
:100790008D899E89C6D118163CF520E030E040E2F4
:1007A00051E46F85788989899A89BFD1DC01CB01B1
:1007B000BC01CD013DD1DC01CB01988F8F8B0FC0E7
:1007C00089E190E09A8F898F898D9A8D0197F1F751
:1007D0009A8F898F8F89988D0197988F8F8B8F89AA
:1007E000988D009769F713C06B897C898D899E89E4
:1007F0001FD1DC01CB01988F8F8B8F89988D9C8FB7
:100800008B8F8B8D9C8D0197F1F79C8F8B8F85E360
:1008100090E025E330E0F901308121E02327FC015D
:10082000208380E090E0AAEFB3E48D8F9E8FAF8F9E
:10083000B8A320E030E04AE753E46D8D7E8D8F8DC4
:1008400098A173D1DC01CB0189A39AA3ABA3BCA36C
:1008500020E030E040E85FE369A17AA18BA19CA190
:10086000E3D088232CF481E090E09EA38DA33BC0CD
:1008700020E03FEF4FE757E469A17AA18BA19CA14B
:1008800050D118163CF520E030E040E251E46D8D87
:100890007E8D8F8D98A149D1DC01CB01BC01CD01AA
:1008A000C7D0DC01CB019EA38DA30FC089E190E0EE
:1008B00098A78FA38FA198A50197F1F798A78FA369
:1008C0008DA19EA101979EA38DA38DA19EA10097AE
:1008D00069F713C069A17AA18BA19CA1A9D0DC0101
:1008E000CB019EA38DA38DA19EA19AA789A789A5BF
:1008F0009AA50197F1F79AA789A785E390E025E3E8
:1009000030E0F901308121E02327FC012083AA9601
:100910000FB6F894DEBF0FBECDBFDF91CF91089523
:10092000CF93DF93CDB7DEB78BE290E0FC018081FF
:100930008823D4F78CE290E0FC018081DF91CF9195
:100940000895CF93DF931F92CDB7DEB705C08CE239
:1009500090E0FC01808189838BE290E0FC01808142
:100960008823ACF30F90DF91CF910895CF93DF935D
:10097000CDB7DEB727D003D0DF91CF910895CF93C5
:10098000DF93CDB7DEB780E490E0FC01108289E20E
:1009900090E029E1FC0120838AE290E028E1FC015B
:1009A00020838BE290E02BE230E0F90120812D7F63
:1009B000FC01208380E490E02EE8FC012083DF919D
:1009C000CF910895CF93DF93CDB7DEB787E390E063
:1009D00027E330E0F90120812260FC0120838FE4CD
:1009E00090E02FE430E0F90120812068FC012083B1
:1009F0008FE490E02FE430E0F90120812360FC01D6
:100A000020838EE490E02EE430E0F9012081226022
:100A1000FC01208386E490E024EF31E0FC01318387
:100A20002083DF91CF9108952FD008F481E00895BD
:100A300057D088F09F5790F0B92F9927B751A0F061
:100A4000D1F0660F771F881F991F1AF0BA95C9F762
:100A500012C0B13081F05ED0B1E008955BC0672F65
:100A6000782F8827B85F39F0B93FCCF38695779512
:100A70006795B395D9F73EF49095809570956195FB
:100A80007F4F8F4F9F4F0895990F0008550FAA0B66
:100A9000E0E8FEEF16161706E807F907C0F0121691
:100AA0001306E407F50798F0621B730B840B950B94
:100AB00039F40A2661F0232B242B252B21F40895E9
:100AC0000A2609F4A140A6958FEF811D811D089586
:100AD00057FD9058440F551F59F05F3F71F04795EF
:100AE000880F97FB991F61F09F3F79F087950895D4
:100AF000121613061406551FF2CF4695F1DF08C0F3
:100B0000161617061806991FF1CF8695710561050F
:100B100008940895E894BB2766277727CB0197F9B7
:100B20000895B2DF08F48FEF08950BD078C069D034
:100B300028F06ED018F0952309F05AC05FC0112438
:100B4000EACFC6DFA0F3959FD1F3950F50E0551F74
:100B5000629FF001729FBB27F00DB11D639FAA2712
:100B6000F00DB11DAA1F649F6627B00DA11D661F61
:100B7000829F2227B00DA11D621F739FB00DA11D82
:100B8000621F839FA00D611D221F749F3327A00D3C
:100B9000611D231F849F600D211D822F762F6A2FD8
:100BA00011249F5750408AF0E1F088234AF0EE0F5D
:100BB000FF1FBB1F661F771F881F91505040A9F76A
:100BC0009E3F510570F014C0A6CF5F3FECF3983EF6
:100BD000DCF3869577956795B795F795E7959F5FD1
:100BE000C1F7FE2B880F911D9695879597F908956B
:100BF00097F99F6780E870E060E008959FEF80ECD0
:100C0000089500240A941616170618060906089572
:100C100000240A9412161306140605060895092ED8
:100C20000394000C11F4882352F0BB0F40F4BF2B47
:100C300011F460FF04C06F5F7F4F8F4F9F4F089587
:100C4000FB01DC018D91019080190110D9F3990B02
:100C50000895FC0101900020E9F7809590958E0F92
:080C60009F1F0895F894FFCFD7
:100C6800425245414B21004C4F434B004C4F434BA4
:100C7800212100554E4C4F434B00554E4C4F434B92
:100C88002121212100534F4D455448494E472121E8
:040C98002121000016
:00000001FF
