:1000000012C024C023C022C021C020C01FC01EC0F7
:100010001DC01CC01BC01AC019C018C017C016C014
:1000200015C014C013C011241FBECFE5D4E0DEBF3D
:10003000CDBF10E0A0E6B0E0E0EAF5E002C0059038
:100040000D92A637B107D9F702D0A8C2D9CFCF9366
:10005000DF93CDB7DEB72E970FB6F894DEBF0FBE95
:10006000CDBF84E390E024E330E0F90120812160FA
:10007000FC0120837AD080E090E0A8ECB2E4898390
:100080009A83AB83BC8320E030E04AE753E4698184
:100090007A818B819C81EED1DC01CB018D839E83A3
:1000A000AF83B88720E030E040E85FE36D817E8178
:1000B0008F8198855ED188232CF481E090E09A8727
:1000C00089873BC020E03FEF4FE757E46D817E8199
:1000D0008F819885CBD118163CF520E030E040E2C6
:1000E00051E469817A818B819C81C4D1DC01CB018F
:1000F000BC01CD0142D1DC01CB019A8789870FC0B9
:1001000089E190E09C878B878B859C850197F1F72F
:100110009C878B8789859A8501979A8789878985A6
:100120009A85009769F713C06D817E818F819885CC
:1001300024D1DC01CB019A87898789859A859E879E
:100140008D878D859E850197F1F79E878D8780E647
:1001500090E025D080E090E02E960FB6F894DEBFB8
:100160000FBECDBFDF91CF910895CF93DF93CDB771
:10017000DEB780E490E0FC01108289E290E029E1A2
:10018000FC0120838AE290E028E1FC01208380E4E6
:1001900090E02EE8FC012083DF91CF9108950F932A
:1001A0001F93CF93DF93CDB7DEB762970FB6F89466
:1001B000DEBF0FBECDBF9A8B898B1A82198282C097
:1001C00089819A81805A9F4FFC0180818FD085E37D
:1001D00090E025E330E0F901308121E02327FC01A4
:1001E000208380E090E0A0E8BFE38B839C83AD8315
:1001F000BE8320E030E04AE753E46B817C818D814F
:100200009E8138D1DC01CB018F839887A987BA877B
:1002100020E030E040E85FE36F81788589859A854A
:10022000A8D088232CF481E090E09C878B873BC08A
:1002300020E03FEF4FE757E46F81788589859A8505
:1002400015D118163CF520E030E040E251E46B8116
:100250007C818D819E810ED1DC01CB01BC01CD0161
:100260008CD0DC01CB019C878B870FC089E190E0AB
:100270009E878D878D859E850197F1F79E878D8757
:100280008B859C8501979C878B878B859C850097A8
:1002900069F713C06F81788589859A856ED0DC01F6
:1002A000CB019C878B878B859C85988B8F878F85CF
:1002B00098890197F1F7988B8F8789819A810196A8
:1002C0009A83898309811A8180E690E05ED10817BC
:1002D000190708F475CF62960FB6F894DEBF0FBE0B
:1002E000CDBFDF91CF911F910F910895CF93DF93F1
:1002F0001F92CDB7DEB7898300008BE290E0FC014E
:100300008081882F90E0807299270097B1F38AE26C
:1003100090E02AE230E0F90120812E7FFC01208369
:100320008981882F90E088279170009749F08AE2B0
:1003300090E02AE230E0F90120812160FC01208375
:100340008CE290E02981FC0120830F90DF91CF9116
:100350000895CF93DF93CDB7DEB700008BE290E036
:10036000FC0180818CE290E0FC018081DF91CF91E3
:1003700008952FD008F481E0089557D088F09F5752
:1003800090F0B92F9927B751A0F0D1F0660F771FE1
:10039000881F991F1AF0BA95C9F712C0B13081F0C1
:1003A0005ED0B1E008955BC0672F782F8827B85FD3
:1003B00039F0B93FCCF3869577956795B395D9F722
:1003C0003EF490958095709561957F4F8F4F9F4F2C
:1003D0000895990F0008550FAA0BE0E8FEEF1616D6
:1003E0001706E807F907C0F012161306E407F50729
:1003F00098F0621B730B840B950B39F40A2661F09D
:10040000232B242B252B21F408950A2609F4A1403F
:10041000A6958FEF811D811D089557FD9058440FBB
:10042000551F59F05F3F71F04795880F97FB991F53
:1004300061F09F3F79F08795089512161306140610
:10044000551FF2CF4695F1DF08C01616170618069D
:10045000991FF1CF86957105610508940895E89478
:10046000BB2766277727CB0197F90895B2DF08F4F9
:100470008FEF08950BD078C069D028F06ED018F0B7
:10048000952309F05AC05FC01124EACFC6DFA0F35C
:10049000959FD1F3950F50E0551F629FF001729F19
:1004A000BB27F00DB11D639FAA27F00DB11DAA1F38
:1004B000649F6627B00DA11D661F829F2227B00D85
:1004C000A11D621F739FB00DA11D621F839FA00D10
:1004D000611D221F749F3327A00D611D231F849F60
:1004E000600D211D822F762F6A2F11249F575040B7
:1004F0008AF0E1F088234AF0EE0FFF1FBB1F661F52
:10050000771F881F91505040A9F79E3F510570F00A
:1005100014C0A6CF5F3FECF3983EDCF38695779549
:100520006795B795F795E7959F5FC1F7FE2B880F05
:10053000911D9695879597F9089597F99F6780E89B
:1005400070E060E008959FEF80EC089500240A9425
:100550001616170618060906089500240A9412169E
:100560001306140605060895092E0394000C11F4D1
:10057000882352F0BB0F40F4BF2B11F460FF04C07E
:100580006F5F7F4F8F4F9F4F0895FC0101900020B8
:10059000E9F7809590958E0F9F1F0895F894FFCFEF
:1005A00041542B4E414D45566F6C746167654469EB
:0605B0007669646572002B
:00000001FF
